:100000009721000093818112138181ED3304010057
:100010006F00D018130101FE232E8100130401028A
:10002000B727000083A787929387470083A707001D
:100030002326F4FE8327C4FE93F717002324F4FE3F
:10004000832784FE9387F7FF93B7170093F7F70F83
:10005000138507000324C10113010102678000001A
:10006000130101FE232E810013040102B7270000B3
:1000700083A7879283A707002326F4FE8327C4FE65
:10008000138507000324C1011301010267800000EA
:10009000130101FE232E8100130401022326A4FE76
:1000A000B727000083A7C792938747001307100064
:1000B00023A0E700B727000083A7C7920327C4FE49
:1000C00023A0E700130000000324C1011301010273
:1000D00067800000130101FE232E8100130401023A
:1000E0002326A4FEB727000003A7C7928327C4FED8
:1000F00093972700B307F70083A70700138507002E
:100100000324C1011301010267800000130101FFF4
:100110002326810013040101B727000083A7C7929B
:100120009387470023A00700B727000083A7C79243
:1001300023A00700130000000324C10013010101E4
:1001400067800000130101FE232E810013040102C9
:100150002326A4FEB727000083A7C79293874700F2
:1001600023A00700B727000083A7C7920327C4FE78
:1001700023A0E700130000000324C10113010102C2
:1001800067800000130101FE232E81001304010289
:10019000B727000083A7C7929387870083A707002C
:1001A0002326F4FE8327C4FE93F717002324F4FECE
:1001B000832784FE9387F7FF93B7170093F7F70F12
:1001C000138507000324C1011301010267800000A9
:1001D000130101FE232E81001304010283A78180F5
:1001E0009387070483A707002326F4FE8327C4FE12
:1001F00093F717002324F4FE832784FE9387F7FFE9
:1002000093B7170093F7F70F138507000324C10175
:100210001301010267800000130101FE232E8100FB
:10022000130401022326A4FE03A781808327C4FEB2
:1002300093972700B307F70083A7070013850700EC
:100240000324C1011301010267800000130101FEB4
:10025000232E81001304010283A7C1809387070422
:1002600083A707002326F4FE8327C4FE93F7170015
:100270002324F4FE832784FE93B7170093F7F70F28
:10028000138507000324C1011301010267800000E8
:10029000130101FE232E8100130401022326A4FE74
:1002A0002324B4FE03A7C1808327C4FE93972700AD
:1002B000B307F700032784FE23A0E7001300000024
:1002C0000324C1011301010267800000130101FF33
:1002D000232681001304010183A7018183A707005E
:1002E000138507000324C10013010101678000008A
:1002F000130101FE232E8100130401022326A4FE14
:1003000083A741810327C4FE23A0E7001300000058
:100310000324C1011301010267800000130101FFE2
:10032000232681001304010183A74181938747009D
:100330001307100023A0E700130000000324C100EE
:100340001301010167800000130101FF23268100D2
:100350001304010183A741819387870013071000CD
:1003600023A0E700130000000324C10013010101D2
:1003700067800000130101FE232E81001304010297
:100380002326A4FE83A741819387C7000327C4FEC9
:1003900023A0E700130000000324C10113010102A0
:1003A00067800000130101FE232E81001304010267
:1003B0002326A4FE2324B4FE03A781818327C4FE41
:1003C00093972700B307F700032784FE23A0E700D5
:1003D000130000000324C101130101026780000023
:1003E000130101FE232E8100130401022326A4FE23
:1003F00003A781818327C4FE93972700B307F700E3
:1004000083A70700138507000324C101130101021C
:1004100067800000130101FE232E1100232C8100B0
:10042000130401022326A4FE2324B4FE2322C4FEC7
:100430008325C4FE13050000EFF09FE5832584FEAD
:1004400013051000EFF0DFE4832544FE13052000C0
:10045000EFF01FE49305C00013058000EFF05FE3A9
:100460009305A00013059000EFF09FE21300000039
:100470008320C10103248101130101026780000070
:10048000130101FE232E1100232C8100130401020D
:100490002326A4FE8327C4FE13970701B7E70000B5
:1004A0009387D7EAB367F700938507001305000029
:1004B000EFF01FDE9305400013058000EFF05FDDD5
:1004C0009305A00013059000EFF09FDC13000000DF
:1004D0008320C10103248101130101026780000010
:1004E000130101FC232E1102232C810213040104A9
:1004F00093070500138705002317F4FC93070700F3
:100500002316F4FC8357E4FC13850700EF108017D3
:1005100013070500B717000083A7077D9385070021
:1005200013050700EF00501F93070500138707000E
:10053000B717000083A5477D13050700EF00D04FD4
:1005400093070500232CF4FC8357C4FC1385070094
:10055000EF10401313070500B717000083A7877D2E
:100560009385070013050700EF00101B9307050094
:1005700013870700B717000083A5C77D1305070081
:10058000EF00904B93070500232AF4FC930700002B
:100590002326F4FE2324F4FE2322F4FE2320F4FE7B
:1005A000A30F04FC6F0040098327C4FE9385070056
:1005B00013850700EF00C04793070500832584FEDD
:1005C00013850700EF00501593070500938507007A
:1005D000032544FDEF00C045930705002324F4FEE6
:1005E000832504FE032544FEEF0010459307050014
:1005F00093850700032584FDEF00804393070500E2
:100600002326F4FE8325C4FE0325C4FEEF00D0108C
:10061000930705002322F4FE832584FE032584FE30
:10062000EF00900F930705002320F4FE8347F4FDAD
:1006300093871700A30FF4FC832504FE032544FED3
:10064000EF00003F9307050013870700B71700006E
:1006500083A5077E13050700EF00500093070500F0
:1006600063D807000347F4FD9307E000E3FEE7F2D9
:100670008347F4FD138507008320C103032481030E
:100680001301010467800000130101FC232E1102F5
:10069000232C8102130401042326A4FC93074000A9
:1006A0002315F4FE8357A4FE0327C4FCB357F702B7
:1006B0002314F4FE8357A4FE0327C4FCB377F70288
:1006C0002313F4FE035784FE930707009397170044
:1006D000B387E700939717002312F4FE835744FE75
:1006E000938767002311F4FE835764FE93973700C6
:1006F0002310F4FE835704FE93878700231FF4FC26
:10070000835744FE2316F4FE6F004008835704FE0F
:100710002317F4FE6F0000060357C4FE8357E4FE60
:100720009305070013850700EFF09FDB9307050093
:10073000A30EF4FC13000000EFF05FB19307050077
:1007400093C7170093F7F70FE39807FE8357E4FE6C
:100750000357C4FE8346D4FD1386060093050700A5
:1007600013850700EFF01FCB8357E4FE9387170034
:100770002317F4FE0357E4FE8357E4FDE36EF7F816
:100780008357C4FE938717002316F4FE0357C4FE55
:10079000835724FEE36CF7F6130000008320C103A7
:1007A000032481031301010467800000130101FA8F
:1007B000232E1104232C8104232A910413040106FF
:1007C000EFF0DFB02322A4FE832744FE93F7F70067
:1007D0002320F4FE032704FE9307A0006310F718FC
:1007E000232604FE232E04FC13000000EFF09F825A
:1007F0009307050093C7170093F7F70FE39807FED9
:10080000EFF0DFB113051000EFF09F88EFF05F9C71
:1008100093070500638C070E13058000EFF0DF9F40
:10082000232CA4FC832784FD93D72700232AF4FCE0
:10083000A30504FE6F0040038347B4FE8344B4FE67
:1008400013850700EFF05F9D1307050093972400C1
:10085000930604FFB387F60023A8E7FA8347B4FEA4
:1008600093871700A305F4FE8347B4FE032744FDD6
:10087000E3E4E7FC032784FD9307C0006316F70455
:10088000232C04FC232A04FC832704FA2328F4FCE9
:10089000832744FA2326F4FC832784FA93F7F7008E
:1008A0002324F4FC8327C4FC93975700032704FDFB
:1008B000B307F7002322F4FC832584FC032544FCC2
:1008C000EFF05FAE6F008004032744FD9307100034
:1008D000631EF702032704FAB70701009387F7FFA7
:1008E0003377F700B7E700009387D7EA6310F70282
:1008F000232C04FC232A04FC8327C4FE93871700BF
:100900002326F4FE0325C4FEEFF09F9E0327C4FEBA
:1009100093070001E31CF7EEEFF01FA3EFF00FFFCA
:10092000EFF04FEF93070500E38C07FEEFF04FF376
:1009300093070500232EF4FC8327C4FD13850700CD
:10094000EFF01FAA930705002320F4FC832704FC83
:1009500013850700EFF01FA26FF09FFC832704FEB2
:1009600063940702032504FEEFF01FD2032504FE63
:10097000EFF01FB11305A000EFF01FD11305A00089
:10098000EFF01FB06F000000032504FEEFF0DFCF93
:10099000032504FEEFF0DFAE6F000000130101FE3F
:1009A000232E1100232C810013040102B72700001D
:1009B000938787922324F4FEB727000093878792BA
:1009C0002326F4FE032784FE8327C4FE630AF7026E
:1009D0006F004002032784FE930747002324F4FEA0
:1009E0008327C4FE938647002326D4FE03270700EF
:1009F00023A0E7000327C4FE9387C181E36CF7FCC3
:100A00009387C1812326F4FE6F0040018327C4FE33
:100A1000138747002326E4FE23A007000327C4FE14
:100A20009387C181E364F7FEEFF05FD86F000000A9
:100A300037078000130101FF1307F7FFB377A70003
:100A400023229100232021019354F50113597501AC
:100A500013D575013377B7001379F90F1375F50FB7
:100A6000232611002324810093D5F50193973700A5
:100A700013173700B306A9406394B418635CD00819
:100A8000631C0504630607349386F6FF639E060223
:100A9000B387E7001305090013975700635C07103D
:100AA000130515001307F00F630EE5323707007EBC
:100AB00093F617001307F7FF93D71700B3F7E70074
:100AC000B3E7D7006F00000F1306F00F631EC900D5
:100AD0001305F00F6F00000E1306F00FE30AC9FEB6
:100AE000370600043367C7001306B0016356D6000B
:100AF000130710006FF0DFF913060002B355D7009B
:100B0000B306D6403317D7003337E00033E7E500AC
:100B10006FF01FF863860606330625416314090249
:100B2000638E07001306F6FF63160600B387E7001F
:100B30006FF09FF69306F00F631ED5009307070032
:100B40006F0040079306F00FE30AD5FEB7060004D6
:100B5000B3E7D7009306B00163D6C6009307100031
:100B60006FF0DFFC93060002B386C640B3D5C70022
:100B7000B397D700B337F000B3E7F5006FF01FFB72
:100B80009306190013F5E60F6310050663120904B6
:100B9000E38607FA63000702B387E700139757005D
:100BA000635A0700370700FC1307F7FFB3F7E700A6
:100BB0001305100013F777006308072213F7F700F7
:100BC000930640006302D722938747006F00C0213D
:100BD00063840720E30E07EE93040000B7070002CA
:100BE0001305F00F6F0040201306F00F638AC61E36
:100BF000B387E70093D71700138506006FF09FFBBC
:100C00006358D0086318050413050900E30407FAC4
:100C10009386F6FF63920602B387E7401397570067
:100C2000E35A07F8370400041304F4FF33F4870091
:100C3000130905006F00C0131306F00F1305F00F22
:100C4000E30AC9F61306B0016352D6021307100077
:100C50006F0040031306F00F1305F00FE30CC9F407
:100C6000370600043367C7006FF0DFFD130600028C
:100C7000B355D700B306D6403317D7003337E0005B
:100C800033E7E500B387E740130509006FF01FF96C
:100C9000638A06063306254163180902638007024A
:100CA0001306F6FF63180600B307F74093840500A8
:100CB0006FF0DFF69306F00F6310D502930707007D
:100CC000938405006FF01FEF9306F00FE308D5FE45
:100CD000B7060004B3E7D7009306B00163D6C60099
:100CE000930710006FF05FFC93060002B386C640C6
:100CF00033D8C700B397D700B337F000B367F80015
:100D00006FF09FFA130519001375E50F63180504BA
:100D1000631C0902639A0700E31207FA93070000B5
:100D2000930400006F00400CE30607E8B386E74039
:100D300013965600B307F740E34406F8E38006FE37
:100D4000938706006FF01FE7E39607E8E30607E8DE
:100D500093070700938405006FF09FD73384E74023
:100D60009316540063D406043304F74093840500BB
:100D700013050400EF0010211305B5FF3314A40080
:100D8000634E2503330525411305150013070002A3
:100D9000B357A4003305A7403314A40033348000B4
:100DA000B3E78700130500006FF0DFE0E31204FCF7
:100DB00093070000130500006FF09FF6B70700FCD3
:100DC0009387F7FF3305A940B377F4006FF09FDEF8
:100DD000130509006FF01FDE930707006FF05FCF68
:100DE0001305F00F9307000013975700635E070089
:100DF000130515001307F00F630EE504370700FC19
:100E00001307F7FFB3F7E7001307F00F93D7370087
:100E10006318E50063860700B707400093040000ED
:100E20001375F50F8320C100032481009397970069
:100E30001317750113D597009394F4013365E500FA
:100E4000336595000329010083244100130101014A
:100E500067800000930700006FF01FFB37078000DA
:100E60001307F7FF135675013378A70093D6750162
:100E70009357F5011376F60F1305F00F3377B7008C
:100E800093F6F60F93D5F5016318A600130520001D
:100E9000630C0806678000006396A6001305200017
:100EA000631C0704631406066394060063080704C2
:100EB000630E08006394B70063D2C60213051000E6
:100EC000638C07021305F0FF678000001305F0FF35
:100ED0006384050213051000678000006358D60084
:100EE0001305F0FFE39807FE6F000001E36807FDBC
:100EF00013050000E366E8FE6780000013050000AC
:100F0000E30C08FE6FF09FFBE38AC6F8E39406FA51
:100F1000E30607FA6FF01FFA130101FE23282101EF
:100F200013597501232A91002326310123225101EF
:100F300093149500232E1100232C810023244101BA
:100F40001379F90F938A050093D494009359F5010E
:100F5000630609089307F00F6302F90A93943400BB
:100F6000B7070004B3E4F400130919F8130A0000EA
:100F700013D57A0113949A001375F50F1354940046
:100F800093DAFA01630C05089307F00F6308F50A7A
:100F900013143400B70700043364F400130515F884
:100FA0009307000013172A003367F7003309A900DD
:100FB0001307F7FF9306E00033C85901930819009F
:100FC00063EEE608B7160000131727009386467EE7
:100FD0003307D7000327070067000700638A04026E
:100FE00013850400EF00007A9307B5FF1309A0F8FA
:100FF000B394F4003309A9406FF05FF71309F00FC1
:10100000130A2000E38604F6130A30006FF05FF63F
:1010100013090000130A10006FF09FF5630A040221
:1010200013050400EF0000769307B5FF3314F400B6
:101030009307A0F83385A7406FF09FF61305F00FD4
:1010400093072000E30004F6930730006FF09FF54C
:1010500013050000930710006FF0DFF4B70E0100D6
:10106000138EFEFF93DF040193570401B3F4C40110
:101070003374C4011385040093050400EF00406E2F
:10108000130305009385070013850400EF00406DEE
:10109000130705009305040013850F00EF00406C53
:1010A000130F05009385070013850F00EF00406BB9
:1010B000935703013307E701B387E70063F4E701C0
:1010C0003305D50133F7C701131707013373C30184
:1010D000330767001314670093D707013334800088
:1010E0001357A701B387A700939767003367E400FE
:1010F00033E4E7009317440063DC070893571400B8
:101100001374140033E487001387F8076356E0086C
:1011100093777400638A07009377F4009306400086
:101120006384D700130444009317440063DA070074
:10113000B70700F89387F7FF3374F40013870808A4
:101140009307E00F1354340063D8E70A1304000038
:101150001307F00F6F00400A13880900138404007E
:1011600093070A0013072000E382E7FE130730000D
:10117000638EE70613071000E398E7F813040000F6
:10118000130700006F00400713880A006FF09FFDEF
:10119000930809006FF05FF793071000B387E740EB
:1011A0001307B001E34CF7FC9388E809B357F40048
:1011B000331414013334800033E4870093777400D0
:1011C000638A07009377F400130740006384E70005
:1011D000130444009317540013543400E3D207FA65
:1011E00013040000130710006F00000137044000D3
:1011F0001307F00F13080000131494001377F70F70
:1012000013177701135494003364E4001315F801A5
:101210003365A4008320C10103248101832441019B
:10122000032901018329C100032A8100832A410087
:10123000130101026780000037078000130101FFDE
:101240001307F7FF9356750113D87501B377A700FD
:10125000232291003377B7002320210193F6F60F64
:101260001378F80F23261100232481001306F00FB2
:101270009354F5011389060093973700130508006E
:1012800093D5F501131737006314C80063140700E2
:1012900093C5150033860641639E9516635CC008AE
:1012A000631C0804630607341306F6FF631E060278
:1012B000B387E7001385060013975700635C071098
:1012C000130515001307F00F630EE5323707007E94
:1012D00093F617001307F7FF93D71700B3F7E7004C
:1012E000B3E7D7006F00000F9305F00F639EB600C1
:1012F0001305F00F6F00000E9305F00FE38AB6FEA2
:10130000B70500043367B7009305B00163D6C50085
:10131000130710006FF0DFF9930500023355C70083
:101320003386C5403317C7003337E0003367E50025
:101330006FF01FF8630606063306D8406394060272
:10134000638C072A1306F6FF63160600B387E700CF
:101350006FF09FF69306F00F631ED8009307070007
:101360006FF01FF99306F00FE30AD8FEB7060004EA
:10137000B3E7D7009306B00163D6C6009307100009
:101380006FF0DFFC93060002B386C640B3D5C700FA
:10139000B397D700B337F000B3E7F5006FF01FFB4A
:1013A000138616001375E60F631A0504639206048C
:1013B0006384072463000702B387E700139757008D
:1013C000635A0700370700FC1307F7FFB3F7E7007E
:1013D0001305100013F777006308072213F7F700CF
:1013E000930640006302D722938747006F00C02115
:1013F000E38607F6E30E07EE6F0040179306F00F43
:101400006300D620B387E70093D7170013050600C3
:101410006FF05FFC6358C00863180804138506006A
:10142000E30A07FA1306F6FF63120602B387E740E2
:1014300013975700E35007FA370400041304F4FF2E
:1014400033F48700130905006F0080149305F00F33
:101450001305F00FE380B6F89305B00163D2C5021F
:10146000130710006F0040039305F00F1305F00FF2
:10147000E382B6F6B70500043367B7006FF0DFFD0F
:10148000930500023355C7003386C5403317C700A4
:101490003337E0003367E500B387E7401385060084
:1014A0006FF01FF9630A06063306D84063980602F8
:1014B000638007081306F6FF63180600B307F740BA
:1014C000938405006FF0DFF69306F00F6310D802E7
:1014D00093070700938405006FF09FE19306F00FD8
:1014E000E308D8FEB7060004B3E7D7009306B001BF
:1014F00063D6C600930710006FF05FFC93060002EE
:10150000B386C64033D8C700B397D700B337F000CF
:10151000B367F8006FF09FFA138516001375E50F97
:10152000631E0504639006046398070063060702C0
:10153000930707006F008001E30E07E8B386E740DA
:101540001396560063580600B307F74093840500CE
:101550006FF05FE8639006129307000093040000A9
:101560006F00800AE39807E8E31407F6930400008D
:10157000B70700021305F00F6F0000093384E7403E
:101580009316540063D406043304F7409384050093
:1015900013050400EF00001F1305B5FF3314A4006A
:1015A000634E25033305254113051500130700027B
:1015B000B357A4003305A7403314A400333480008C
:1015C000B3E78700130500006FF0DFE0E31204FCCF
:1015D00093070000130500006FF05FF8B70700FCE9
:1015E0009387F7FF3305A940B377F4006FF09FDED0
:1015F000138506006FF01FDE930707006FF09FDD75
:101600001305F00F9307000013975700635E070060
:10161000130515001307F00F6302E506370700FCFA
:101620001307F7FFB3F7E7001307F00F93D737005F
:101630006318E50063860700B707400093040000C5
:101640001375F50F8320C100032481009397970041
:101650001317750113D597009394F4013365E500D2
:101660003365950003290100832441001301010122
:1016700067800000938706006FF0DFD593070000B6
:101680006FF09FFA130101FF23248100232611002C
:10169000130405009307000063040502EF00800EA9
:1016A0009307E009B387A74013076009634CF7026B
:1016B000130780006356A700130585FF3314A400A9
:1016C0001314940013F5F70F1354940013157501B8
:1016D0003365A4008320C1000324810013010101AC
:1016E00067800000130790096350F7021307B501E4
:1016F000930650003317E400B386A6403337E0006A
:101700003354D40033648700130750006356A70096
:101710001307B5FF3314E400370700FC1307F7FF86
:10172000937674003377E400638A06001374F40040
:10173000930640006304D400130747009316570034
:1017400063DC0600B70700FC9387F7FF3377F700E9
:101750009307F009B387A740135437006FF05FF683
:10176000130605001305000093F6150063840600B8
:101770003305C50093D5150013161600E39605FE34
:1017800067800000B7070100637AF5029307F00F46
:10179000B3B7A70093973700130700023307F7404A
:1017A000B357F5003725000013050582B387A7005E
:1017B00003C507003305A740678000003707000115
:1017C00093070001E36AE5FC930780016FF0DFFCFB
:1017D0000000C03D00000040ABAAAA3D0000803FD1
:1017E00000008040641100006411000088110000B6
:1017F0005C1100005C110000EC1100008811000079
:101800005C110000EC1100005C1100008811000068
:10181000581100005811000058110000EC11000090
:101820000001020203030303040404040404040487
:101830000505050505050505050505050505050558
:101840000606060606060606060606060606060638
:101850000606060606060606060606060606060628
:101860000707070707070707070707070707070708
:1018700007070707070707070707070707070707F8
:1018800007070707070707070707070707070707E8
:1018900007070707070707070707070707070707D8
:1018A00008080808080808080808080808080808B8
:1018B00008080808080808080808080808080808A8
:1018C0000808080808080808080808080808080898
:1018D0000808080808080808080808080808080888
:1018E0000808080808080808080808080808080878
:1018F0000808080808080808080808080808080868
:101900000808080808080808080808080808080857
:101910000808080808080808080808080808080847
:081920000000C03DABAAAA3D86
:10192800000000400000005000000060000000704F
:0C1938000000008000000090000000B0E3
:00000001FF
